:100000000C942A000C9447000C9447000C94470071
:100010000C9447000C9447000C9447000C94470044
:100020000C9447000C9447000C9447000C94470034
:100030000C9447000C9447000C9447000C94470024
:100040000C9447000C9447000C9447000C94470014
:100050000C94470011241FBECFE5D8E0DEBFCDBF12
:1000600010E0A0E6B0E0EEE0F9E002C005900D92ED
:10007000A836B107D9F710E0A8E6B0E001C01D929C
:10008000A836B107E1F70E9466000C9485040C9431
:100090000000DF93CF9300D000D0CDB7DEB79C83B4
:1000A0008B838B819C819A83898305C089819A8106
:1000B00001979A83898389819A810097B9F70F9074
:1000C0000F900F900F90CF91DF9108951F93DF93C2
:1000D000CF9300D000D000D0CDB7DEB787E390E05B
:1000E0002FEFFC01208381E390E0FC01108280E08F
:1000F00090E0A0E0B0E089839A83AB83BC8388E37F
:1001000090E02FEFFC0120831EC069817A818B81F2
:100110009C8120E030E040E85FE30E942D02DC019A
:10012000CB0189839A83AB83BC8380E390E0FC019D
:1001300080818F3F41F080E390E0FC018081882F37
:1001400090E09E838D8380E390E0FC0180818F3F6F
:10015000E1F680EB96E30E94490015C088E390E049
:100160002D81FC01208369817A818B819C8120E033
:1001700030E040E85FE30E945A02DC01CB01898352
:100180009A83AB83BC8311E069817A818B819C81E6
:1001900020E030E040E050E00E948B0218160CF0A6
:1001A00010E01123D9F688E390E02FEFFC012083C3
:1001B00080E090E0A0E0B0E089839A83AB83BC83C9
:1001C0009ECFA0E0B0E0E7EEF0E00C945204FC011A
:1001D000EA018081823008F43AC1DB019C919230BF
:1001E00008F432C1843059F4943009F030C191815F
:1001F00011968C911197981709F023C128C194305A
:1002000009F422C19230B1F4823009F020C1CA0150
:10021000AF0128E0DA010D90AD01DC010D92CD01B6
:100220002150C1F7DB0111968C911197918189239F
:1002300089830CC1823009F407C1C280D380DB01FD
:1002400012966D907C901397248135814681578159
:100250001496ED90FD900D911C911797C60186198B
:1002600097095C0197FF04C0AA24BB24A81AB90A05
:10027000B0E2AB16B1040CF062C0181619066CF5AA
:10028000370148010A2C04C09694879477946794A8
:100290000A94D2F781E090E0A0E0B0E00A2C04C01C
:1002A000880F991FAA1FBB1F0A94D2F70197A109B3
:1002B000B1098E219F21A023B123EE24FF248701C1
:1002C000E3940097A105B10519F4EE24FF248701FA
:1002D000E628F728082919293EC00097E1F1CA0C41
:1002E000DB1C39014A010A2C04C096948794779448
:1002F00067940A94D2F781E090E0A0E0B0E00A2C85
:1003000004C0880F991FAA1FBB1F0A94D2F7019738
:10031000A109B10982239323A423B52321E030E06E
:1003200040E050E00097A105B10521F420E030E065
:1003300040E050E026293729482959290CC06C147F
:100340007D0424F4EE24FF24870105C0630120E02E
:1003500030E040E050E08181FB019181891709F490
:1003600045C0882349F0D801C701821B930BA40B19
:10037000B50B9C01AD0104C02E193F09400B510B78
:1003800057FD04C01982DB82CA820BC081E08983D9
:10039000DB82CA8250954095309521953F4F4F4F53
:1003A0005F4F2C833D834E835F830DC0880F991F61
:1003B000AA1FBB1F8C839D83AE83BF838A819B81D1
:1003C00001979B838A838C819D81AE81BF819C0133
:1003D000AD0121503040404050402F3FEFEF3E07ED
:1003E000EFEF4E07EFE35E0708F30BC08983DB8274
:1003F000CA822E0D3F1D401F511F2C833D834E830B
:100400005F8383E088832C813D814E815F8157FF2C
:100410001DC0DA01C90181709070A070B07056954E
:10042000479537952795822B932BA42BB52B8C833F
:100430009D83AE83BF838A819B8101969B838A8340
:1004400005C0E0E6F0E003C0FB0101C0FE01CF0102
:10045000CDB7DEB7EEE00C946E04A0E2B0E0E3E3CB
:10046000F2E00C945A0469837A838B839C832D83F6
:100470003E834F83588789E0E82EF12CEC0EFD1E59
:10048000CE010196B7010E948C038E010F5E1F4FB3
:10049000CE010596B8010E948C03C701B801AE01D8
:1004A000475E5F4F0E94E1000E94BB02A096E6E01B
:1004B0000C947604A0E2B0E0E0E6F2E00C945A047A
:1004C00069837A838B839C832D833E834F835887F4
:1004D0008E01075F1F4FCE010196B8010E948C0369
:1004E00091E1E92EF12CEC0EFD1ECE010596B7012F
:1004F0000E948C038A8991E089278A8BC801B70101
:10050000AE01475E5F4F0E94E1000E94BB02A096D1
:10051000E6E00C947604A8E1B0E0E1E9F2E00C94A6
:100520005A0469837A838B839C832D833E834F8314
:1005300058878E01075F1F4FCE010196B8010E94B8
:100540008C0381E1E82EF12CEC0EFD1ECE01059608
:10055000B7010E948C038985823040F089898230FE
:1005600028F0C801B7010E94F50301C08FEF68961B
:10057000E6E00C947604EF92FF920F931F93CF93D3
:10058000DF93FC012481358146815781618180811F
:10059000823020F44061EFEFF0E0A6C0843009F42F
:1005A0009DC0823009F494C02115310541055105E3
:1005B00009F491C00280F381E02D8FEFE238F80753
:1005C0000CF05CC0C2E8DFEFCE1BDF0BCA31D105F7
:1005D00074F579018A010C2E04C016950795F794DD
:1005E000E7940A94D2F781E090E0A0E0B0E00C2E0E
:1005F00004C0880F991FAA1FBB1F0A94D2F7019746
:10060000A109B10982239323A423B52321E030E07B
:1006100040E050E00097A105B10521F420E030E072
:1006200040E050E02E293F29402B512B04C020E010
:1006300030E040E050E0DA01C9018F779070A0709F
:10064000B07080349105A105B10539F427FF09C0C8
:10065000205C3F4F4F4F5F4F04C0215C3F4F4F4FD7
:100660005F4FE1E0F0E0203080E0380780E04807AD
:1006700080E4580728F5E0E0F0E022C0E038F1051A
:100680006CF5E158FF4FDA01C9018F779070A070C7
:10069000B07080349105A105B10539F427FF09C078
:1006A000205C3F4F4F4F5F4F04C0215C3F4F4F4F87
:1006B0005F4F57FF05C0569547953795279531965B
:1006C00087E056954795379527958A95D1F70CC0C1
:1006D000E0E0F0E005C0E0E0F0E006C0EFEFF0E0C1
:1006E00020E030E040E050E08E2F87958827879506
:1006F000942F9F77679566276795E695E22EA92F39
:10070000A82BFE2FF62B622F732F8A2F9F2FCDB78A
:10071000DEB7E6E00C947604DC01FB012C91119627
:100720003C91119712968C911297482F4F7750E079
:10073000982F991F9927991F13966C911397862FBD
:10074000880F892B90E0661F6627661F61830097DC
:1007500039F5211531054105510511F482E029C013
:1007600082E89FEF9383828367E0220F331F441F49
:10077000551F6A95D1F783E0808309C0220F331F8C
:10078000441F551F82819381019793838283203078
:1007900080E0380780E0480780E4580778F320C0FD
:1007A0008F3F910579F4211531054105510519F463
:1007B00084E08083089544FF03C081E0808310C0FB
:1007C00010820EC08F5790409383828383E0808392
:1007D00087E0220F331F441F551F8A95D1F75064BD
:1007E00024833583468357830895FC01DB01908180
:1007F000923008F449C08C91823008F445C094309E
:1008000051F461818430B1F511962C91119730E04B
:10081000261B310941C0843021F0923041F48230EE
:10082000B1F111968C9111978823A1F12DC06181AE
:10083000823001F111968C9111976817D9F42281B9
:10084000338112968D919C9113978217930794F0A0
:1008500028173907BCF024813581468157811496C9
:100860008D919D910D90BC91A02D82179307A407A7
:10087000B50718F4662341F00DC0281739074A0759
:100880005B0728F4662331F021E030E005C020E06A
:1008900030E002C02FEF3FEFC90108952F923F9241
:1008A0004F925F926F927F928F929F92AF92BF9280
:1008B000CF92DF92EF92FF920F931F93CF93DF932C
:1008C000CDB7DEB7CA1BDB0B0FB6F894DEBF0FBE89
:1008D000CDBF09942A88398848885F846E847D84D6
:1008E0008C849B84AA84B984C884DF80EE80FD80D8
:1008F0000C811B81AA81B981CE0FD11D0FB6F8944E
:0E090000DEBF0FBECDBFED010895F894FFCF0E
:08090E000000000000000000E1
:00000001FF
