:100000000C942A000C9447000C9447000C94470071
:100010000C9447000C9447000C9447000C94470044
:100020000C9447000C9464000C9447000C94470017
:100030000C9447000C9447000C9447000C94470024
:100040000C9447000C9447000C9447000C94470014
:100050000C94470011241FBECFE5D8E0DEBFCDBF12
:1000600010E0A0E6B0E0ECE2F1E002C005900D92F5
:10007000A036B107D9F710E0A0E6B0E001C01D92AC
:10008000A136B107E1F70E948A000C9494000C9409
:100090000000DF93CF93CDB7DEB787E390E02FEF7B
:1000A000FC0120838EE490E021E0FC01208388E5C0
:1000B00090E024E0FC01208389E590E025E0FC014C
:1000C0002083CF91DF9108951F920F920FB60F9268
:1000D00011242F938F939F93EF93FF93DF93CF93ED
:1000E000CDB7DEB7809160008F5F8093600088E3BA
:1000F00090E0209160002095FC012083CF91DF915A
:10010000FF91EF919F918F912F910F900FBE0F90C4
:100110001F901895DF93CF93CDB7DEB71092600094
:0C0120000E9449007894FFCFF894FFCFB4
:00000001FF
