:100000000C942A000C9447000C9447000C94470071
:100010000C9447000C9447000C9447000C94470044
:100020000C9447000C9447000C9447000C9470000B
:100030000C9447000C9447000C9447000C94470024
:100040000C9447000C9447000C9447000C94470014
:100050000C94470011241FBECFE5D8E0DEBFCDBF12
:1000600010E0A0E6B0E0ECEEF1E002C005900D92E9
:10007000A036B107D9F710E0A0E6B0E001C01D92AC
:10008000A636B107E1F70E94A4000C94F4000C948A
:100090000000DF93CF93CDB7DEB781E390E0FC01A2
:1000A000108287E390E02FEFFC01208383E590E04E
:1000B00025E0FC01208388E590E021E0FC0120831D
:1000C00089E590E021E0FC0120831092610010920C
:1000D00060001092630010926200CF91DF9108954A
:1000E0001F920F920FB60F9211248F939F93DF935D
:1000F000CF93CDB7DEB780916200909163008130DD
:10010000910549F48091600090916100019690936F
:100110006100809360008091620090916300823062
:10012000910549F48091600090916100019790934E
:10013000610080936000CF91DF919F918F910F902C
:100140000FBE0F901F901895DF93CF93CDB7DEB7FA
:100150000E944900789401C0000088E390E02FEFEE
:10016000FC012083109261001092600010926300E5
:100170001092620016C081E090E09093630080933B
:10018000620080E390E0FC0180818F3F51F080E3CA
:1001900090E0FC018081882F90E09093650080932F
:1001A000640080E390E0FC0180818F3F21F7809123
:1001B0006200909163008130910571F682E090E0D9
:1001C000909363008093620008C088E390E02091E0
:1001D000640030916500FC01208380916000909163
:0C01E0006100009791F7B9CFF894FFCFB1
:00000001FF
